{
    "contractName": "NFTLFarm",
    "abi": [
        {
            "inputs": [
                {
                    "internalType": "contract NFTL",
                    "name": "_nftl",
                    "type": "address"
                },
                {
                    "internalType": "address",
                    "name": "_devaddr",
                    "type": "address"
                },
                {
                    "internalType": "address",
                    "name": "_teamRewardsReceiver",
                    "type": "address"
                },
                {
                    "internalType": "uint256",
                    "name": "_nftlPerBlock",
                    "type": "uint256"
                },
                {
                    "internalType": "uint256",
                    "name": "_startBlock",
                    "type": "uint256"
                },
                {
                    "internalType": "uint256",
                    "name": "_bonusEndBlock",
                    "type": "uint256"
                }
            ],
            "stateMutability": "nonpayable",
            "type": "constructor"
        },
        {
            "anonymous": false,
            "inputs": [
                {
                    "indexed": true,
                    "internalType": "address",
                    "name": "user",
                    "type": "address"
                },
                {
                    "indexed": true,
                    "internalType": "uint256",
                    "name": "pid",
                    "type": "uint256"
                },
                {
                    "indexed": false,
                    "internalType": "uint256",
                    "name": "amount",
                    "type": "uint256"
                }
            ],
            "name": "Deposit",
            "type": "event"
        },
        {
            "anonymous": false,
            "inputs": [
                {
                    "indexed": true,
                    "internalType": "address",
                    "name": "user",
                    "type": "address"
                },
                {
                    "indexed": true,
                    "internalType": "uint256",
                    "name": "pid",
                    "type": "uint256"
                },
                {
                    "indexed": false,
                    "internalType": "uint256",
                    "name": "amount",
                    "type": "uint256"
                }
            ],
            "name": "EmergencyWithdraw",
            "type": "event"
        },
        {
            "anonymous": false,
            "inputs": [
                {
                    "indexed": true,
                    "internalType": "address",
                    "name": "previousOwner",
                    "type": "address"
                },
                {
                    "indexed": true,
                    "internalType": "address",
                    "name": "newOwner",
                    "type": "address"
                }
            ],
            "name": "OwnershipTransferred",
            "type": "event"
        },
        {
            "anonymous": false,
            "inputs": [
                {
                    "indexed": true,
                    "internalType": "address",
                    "name": "user",
                    "type": "address"
                },
                {
                    "indexed": true,
                    "internalType": "address",
                    "name": "_devaddr",
                    "type": "address"
                }
            ],
            "name": "SetDev",
            "type": "event"
        },
        {
            "anonymous": false,
            "inputs": [
                {
                    "indexed": true,
                    "internalType": "address",
                    "name": "user",
                    "type": "address"
                },
                {
                    "indexed": true,
                    "internalType": "uint256",
                    "name": "pid",
                    "type": "uint256"
                },
                {
                    "indexed": false,
                    "internalType": "uint256",
                    "name": "amount",
                    "type": "uint256"
                }
            ],
            "name": "Withdraw",
            "type": "event"
        },
        {
            "inputs": [],
            "name": "BONUS_MULTIPLIER",
            "outputs": [
                {
                    "internalType": "uint256",
                    "name": "",
                    "type": "uint256"
                }
            ],
            "stateMutability": "view",
            "type": "function"
        },
        {
            "inputs": [],
            "name": "NFTLPerBlock",
            "outputs": [
                {
                    "internalType": "uint256",
                    "name": "",
                    "type": "uint256"
                }
            ],
            "stateMutability": "view",
            "type": "function"
        },
        {
            "inputs": [
                {
                    "internalType": "uint256",
                    "name": "_allocPoint",
                    "type": "uint256"
                },
                {
                    "internalType": "contract IERC20",
                    "name": "_token",
                    "type": "address"
                },
                {
                    "internalType": "uint16",
                    "name": "_depositFeeBP",
                    "type": "uint16"
                },
                {
                    "internalType": "bool",
                    "name": "_withUpdate",
                    "type": "bool"
                }
            ],
            "name": "add",
            "outputs": [],
            "stateMutability": "nonpayable",
            "type": "function"
        },
        {
            "inputs": [],
            "name": "bonusEndBlock",
            "outputs": [
                {
                    "internalType": "uint256",
                    "name": "",
                    "type": "uint256"
                }
            ],
            "stateMutability": "view",
            "type": "function"
        },
        {
            "inputs": [
                {
                    "internalType": "uint256",
                    "name": "_newRate",
                    "type": "uint256"
                }
            ],
            "name": "changeNFTLPerBlock",
            "outputs": [],
            "stateMutability": "nonpayable",
            "type": "function"
        },
        {
            "inputs": [
                {
                    "internalType": "contract IERC20",
                    "name": "_token",
                    "type": "address"
                }
            ],
            "name": "checkPoolDuplicate",
            "outputs": [],
            "stateMutability": "view",
            "type": "function"
        },
        {
            "inputs": [
                {
                    "internalType": "uint256",
                    "name": "_pid",
                    "type": "uint256"
                }
            ],
            "name": "claim",
            "outputs": [],
            "stateMutability": "nonpayable",
            "type": "function"
        },
        {
            "inputs": [
                {
                    "internalType": "uint256",
                    "name": "_pid",
                    "type": "uint256"
                },
                {
                    "internalType": "uint256",
                    "name": "_amount",
                    "type": "uint256"
                }
            ],
            "name": "deposit",
            "outputs": [],
            "stateMutability": "nonpayable",
            "type": "function"
        },
        {
            "inputs": [
                {
                    "internalType": "address",
                    "name": "_devaddr",
                    "type": "address"
                }
            ],
            "name": "dev",
            "outputs": [],
            "stateMutability": "nonpayable",
            "type": "function"
        },
        {
            "inputs": [],
            "name": "devaddr",
            "outputs": [
                {
                    "internalType": "address",
                    "name": "",
                    "type": "address"
                }
            ],
            "stateMutability": "view",
            "type": "function"
        },
        {
            "inputs": [
                {
                    "internalType": "uint256",
                    "name": "_pid",
                    "type": "uint256"
                }
            ],
            "name": "emergencyWithdraw",
            "outputs": [],
            "stateMutability": "nonpayable",
            "type": "function"
        },
        {
            "inputs": [],
            "name": "feeAddress",
            "outputs": [
                {
                    "internalType": "address",
                    "name": "",
                    "type": "address"
                }
            ],
            "stateMutability": "view",
            "type": "function"
        },
        {
            "inputs": [
                {
                    "internalType": "uint256",
                    "name": "_from",
                    "type": "uint256"
                },
                {
                    "internalType": "uint256",
                    "name": "_to",
                    "type": "uint256"
                }
            ],
            "name": "getMultiplier",
            "outputs": [
                {
                    "internalType": "uint256",
                    "name": "",
                    "type": "uint256"
                }
            ],
            "stateMutability": "view",
            "type": "function"
        },
        {
            "inputs": [],
            "name": "massUpdatePools",
            "outputs": [],
            "stateMutability": "nonpayable",
            "type": "function"
        },
        {
            "inputs": [],
            "name": "nftl",
            "outputs": [
                {
                    "internalType": "contract NFTL",
                    "name": "",
                    "type": "address"
                }
            ],
            "stateMutability": "view",
            "type": "function"
        },
        {
            "inputs": [],
            "name": "owner",
            "outputs": [
                {
                    "internalType": "address",
                    "name": "",
                    "type": "address"
                }
            ],
            "stateMutability": "view",
            "type": "function"
        },
        {
            "inputs": [
                {
                    "internalType": "uint256",
                    "name": "_pid",
                    "type": "uint256"
                },
                {
                    "internalType": "address",
                    "name": "_user",
                    "type": "address"
                }
            ],
            "name": "pendingNFTL",
            "outputs": [
                {
                    "internalType": "uint256",
                    "name": "",
                    "type": "uint256"
                }
            ],
            "stateMutability": "view",
            "type": "function"
        },
        {
            "inputs": [
                {
                    "internalType": "uint256",
                    "name": "",
                    "type": "uint256"
                }
            ],
            "name": "poolInfo",
            "outputs": [
                {
                    "internalType": "contract IERC20",
                    "name": "token",
                    "type": "address"
                },
                {
                    "internalType": "uint256",
                    "name": "allocPoint",
                    "type": "uint256"
                },
                {
                    "internalType": "uint256",
                    "name": "lastRewardBlock",
                    "type": "uint256"
                },
                {
                    "internalType": "uint256",
                    "name": "accNFTLPerShare",
                    "type": "uint256"
                },
                {
                    "internalType": "uint16",
                    "name": "depositFeeBP",
                    "type": "uint16"
                }
            ],
            "stateMutability": "view",
            "type": "function"
        },
        {
            "inputs": [],
            "name": "poolLength",
            "outputs": [
                {
                    "internalType": "uint256",
                    "name": "",
                    "type": "uint256"
                }
            ],
            "stateMutability": "view",
            "type": "function"
        },
        {
            "inputs": [],
            "name": "renounceOwnership",
            "outputs": [],
            "stateMutability": "nonpayable",
            "type": "function"
        },
        {
            "inputs": [
                {
                    "internalType": "uint256",
                    "name": "_pid",
                    "type": "uint256"
                },
                {
                    "internalType": "uint256",
                    "name": "_allocPoint",
                    "type": "uint256"
                },
                {
                    "internalType": "uint16",
                    "name": "_depositFeeBP",
                    "type": "uint16"
                },
                {
                    "internalType": "bool",
                    "name": "_withUpdate",
                    "type": "bool"
                }
            ],
            "name": "set",
            "outputs": [],
            "stateMutability": "nonpayable",
            "type": "function"
        },
        {
            "inputs": [
                {
                    "internalType": "address",
                    "name": "_feeAddress",
                    "type": "address"
                }
            ],
            "name": "setFeeAddress",
            "outputs": [],
            "stateMutability": "nonpayable",
            "type": "function"
        },
        {
            "inputs": [],
            "name": "startBlock",
            "outputs": [
                {
                    "internalType": "uint256",
                    "name": "",
                    "type": "uint256"
                }
            ],
            "stateMutability": "view",
            "type": "function"
        },
        {
            "inputs": [],
            "name": "teamRewardsReceiver",
            "outputs": [
                {
                    "internalType": "address",
                    "name": "",
                    "type": "address"
                }
            ],
            "stateMutability": "view",
            "type": "function"
        },
        {
            "inputs": [],
            "name": "teamShare",
            "outputs": [
                {
                    "internalType": "uint256",
                    "name": "",
                    "type": "uint256"
                }
            ],
            "stateMutability": "view",
            "type": "function"
        },
        {
            "inputs": [],
            "name": "totalAllocPoint",
            "outputs": [
                {
                    "internalType": "uint256",
                    "name": "",
                    "type": "uint256"
                }
            ],
            "stateMutability": "view",
            "type": "function"
        },
        {
            "inputs": [
                {
                    "internalType": "address",
                    "name": "newOwner",
                    "type": "address"
                }
            ],
            "name": "transferOwnership",
            "outputs": [],
            "stateMutability": "nonpayable",
            "type": "function"
        },
        {
            "inputs": [
                {
                    "internalType": "uint256",
                    "name": "_pid",
                    "type": "uint256"
                }
            ],
            "name": "updatePool",
            "outputs": [],
            "stateMutability": "nonpayable",
            "type": "function"
        },
        {
            "inputs": [
                {
                    "internalType": "uint256",
                    "name": "_newShare",
                    "type": "uint256"
                }
            ],
            "name": "updateTeamShare",
            "outputs": [],
            "stateMutability": "nonpayable",
            "type": "function"
        },
        {
            "inputs": [
                {
                    "internalType": "uint256",
                    "name": "",
                    "type": "uint256"
                },
                {
                    "internalType": "address",
                    "name": "",
                    "type": "address"
                }
            ],
            "name": "userInfo",
            "outputs": [
                {
                    "internalType": "uint256",
                    "name": "amount",
                    "type": "uint256"
                },
                {
                    "internalType": "uint256",
                    "name": "rewardDebt",
                    "type": "uint256"
                }
            ],
            "stateMutability": "view",
            "type": "function"
        },
        {
            "inputs": [
                {
                    "internalType": "uint256",
                    "name": "_pid",
                    "type": "uint256"
                },
                {
                    "internalType": "uint256",
                    "name": "_amount",
                    "type": "uint256"
                }
            ],
            "name": "withdraw",
            "outputs": [],
            "stateMutability": "nonpayable",
            "type": "function"
        }
    ],
    "bytecode": "608060405260006009556103e8600b5534801561001b57600080fd5b506040516123e43803806123e4833981810160405260c081101561003e57600080fd5b508051602082015160408301516060840151608085015160a0909501519394929391929091600061006d610113565b600080546001600160a01b0319166001600160a01b0383169081178255604051929350917f8be0079c531659141344cd1fd0a4f28419497f9722a3daafe3b4186f6b6457e0908290a350600380546001600160a01b03199081163317909155600180546001600160a01b039889169083161790556002805496881696821696909617909555600692909255600591909155600a5560048054919093169116179055610117565b3390565b6122be806101266000396000f3fe608060405234801561001057600080fd5b50600436106101e55760003560e01c8063630b5ba11161010f5780638da5cb5b116100a2578063d963842211610071578063d9638422146104d0578063e2bbb15814610505578063ea6ef2fe14610528578063f2fde38b14610530576101e5565b80638da5cb5b146104585780638dbb1e3a1461046057806393f1a40b14610483578063d49e77cd146104c8576101e5565b8063859d12ab116100de578063859d12ab146103d85780638705fcd4146104045780638aa285501461042a5780638d88a90e14610432576101e5565b8063630b5ba1146103825780636e8d36551461038a578063715018a61461039257806384e82a331461039a576101e5565b80633b300a281161018757806348cd4cb11161015657806348cd4cb1146103385780634e81da0a1461034057806351eb05a6146103485780635312ea8e14610365576101e5565b80633b300a28146102b757806341275358146102d4578063441a3e70146102f857806348b4e8fd1461031b576101e5565b80631a8c381f116101c35780631a8c381f146102625780631aed65531461026a578063322d0d4a14610272578063379607f51461029a576101e5565b8063081e3eda146101ea5780631526fe271461020457806317caf6f11461025a575b600080fd5b6101f2610556565b60408051918252519081900360200190f35b6102216004803603602081101561021a57600080fd5b503561055d565b604080516001600160a01b039096168652602086019490945284840192909252606084015261ffff166080830152519081900360a00190f35b6101f26105ac565b6101f26105b2565b6101f26105b8565b6102986004803603602081101561028857600080fd5b50356001600160a01b03166105be565b005b610298600480360360208110156102b057600080fd5b5035610653565b610298600480360360208110156102cd57600080fd5b50356107ae565b6102dc610855565b604080516001600160a01b039092168252519081900360200190f35b6102986004803603604081101561030e57600080fd5b5080359060200135610864565b6102986004803603602081101561033157600080fd5b5035610a1a565b6101f2610ac8565b6102dc610ace565b6102986004803603602081101561035e57600080fd5b5035610add565b6102986004803603602081101561037b57600080fd5b5035610e6f565b610298610f0b565b6102dc610f2a565b610298610f39565b610298600480360360808110156103b057600080fd5b508035906001600160a01b036020820135169061ffff60408201351690606001351515610fed565b6101f2600480360360408110156103ee57600080fd5b50803590602001356001600160a01b03166111f9565b6102986004803603602081101561041a57600080fd5b50356001600160a01b0316611355565b6101f2611427565b6102986004803603602081101561044857600080fd5b50356001600160a01b031661142c565b6102dc6114cf565b6101f26004803603604081101561047657600080fd5b50803590602001356114de565b6104af6004803603604081101561049957600080fd5b50803590602001356001600160a01b0316611589565b6040805192835260208301919091528051918290030190f35b6102dc6115ad565b610298600480360360808110156104e657600080fd5b5080359060208101359061ffff604082013516906060013515156115bc565b6102986004803603604081101561051b57600080fd5b5080359060200135611768565b6101f261193a565b6102986004803603602081101561054657600080fd5b50356001600160a01b0316611940565b6007545b90565b6007818154811061056d57600080fd5b6000918252602090912060059091020180546001820154600283015460038401546004909401546001600160a01b0390931694509092909161ffff1685565b60095481565b60065481565b60055481565b60075460005b8181101561064e57826001600160a01b0316600782815481106105e357fe5b60009182526020909120600590910201546001600160a01b03161415610646576040805162461bcd60e51b81526020600482015260136024820152726164643a206578697374696e6720706f6f6c3f60681b604482015290519081900360640190fd5b6001016105c4565b505050565b60006007828154811061066257fe5b6000918252602080832085845260088252604080852033865290925292208054600590920290920192506106d3576040805162461bcd60e51b81526020600482015260136024820152724e6f205265776172647320746f20636c61696d60681b604482015290519081900360640190fd5b6106dc83610add565b60006107198260010154610713670de0b6b3a764000061070d87600301548760000154611a4a90919063ffffffff16565b90611aaa565b90611aec565b9050610742670de0b6b3a764000061070d85600301548560000154611a4a90919063ffffffff16565b600183015580156107a857600a5462278d0001431161079e57600061076d606461070d84600a611a4a565b90506107823361077d8484611aec565b611b2e565b600254610798906001600160a01b031682611b2e565b506107a8565b6107a83382611b2e565b50505050565b6002546001600160a01b03163314610805576040805162461bcd60e51b81526020600482015260156024820152743330b9369d103bb937b733903232bb32b637b832b960591b604482015290519081900360640190fd5b6002546001600160a01b03163314610850576040805162461bcd60e51b81526020600482015260096024820152686465763a207775743f60b81b604482015290519081900360640190fd5b600655565b6003546001600160a01b031681565b600754829081106108b7576040805162461bcd60e51b81526020600482015260186024820152776661726d3a20706f6f6c20646f206e6f742065786973747360401b604482015290519081900360640190fd5b6000600784815481106108c657fe5b600091825260208083208784526008825260408085203386529092529220805460059092029092019250841115610939576040805162461bcd60e51b81526020600482015260126024820152711dda5d1a191c985dce881b9bdd0819dbdbd960721b604482015290519081900360640190fd5b61094285610add565b60006109738260010154610713670de0b6b3a764000061070d87600301548760000154611a4a90919063ffffffff16565b905061099c670de0b6b3a764000061070d85600301548560000154611a4a90919063ffffffff16565b600183015580156109b1576109b13382611b2e565b84156109db5781546109c39086611aec565b825582546109db906001600160a01b03163387611cbe565b604080518681529051879133917ff279e6a1f5e320cca91135676d9cb6e44ca8a08c0b88342bcdb1144f6511b5689181900360200190a3505050505050565b6002546001600160a01b03163314610a71576040805162461bcd60e51b81526020600482015260156024820152743330b9369d103bb937b733903232bb32b637b832b960591b604482015290519081900360640190fd5b600081118015610a835750620f424081105b610ac3576040805162461bcd60e51b815260206004820152600c60248201526b57726f6e672056616c75657360a01b604482015290519081900360640190fd5b600b55565b600a5481565b6001546001600160a01b031681565b60075481908110610b30576040805162461bcd60e51b81526020600482015260186024820152776661726d3a20706f6f6c20646f206e6f742065786973747360401b604482015290519081900360640190fd5b600060078381548110610b3f57fe5b9060005260206000209060050201905080600201544311610b605750610e6b565b8054604080516370a0823160e01b815230600482015290516000926001600160a01b0316916370a08231916024808301926020929190829003018186803b158015610baa57600080fd5b505afa158015610bbe573d6000803e3d6000fd5b505050506040513d6020811015610bd457600080fd5b5051905080610bea575043600290910155610e6b565b6000610bfa8360020154436114de565b90506000610c2460095461070d8660010154610c1e610c17611d10565b8790611a4a565b90611a4a565b90506000610c4361271061070d600b5485611a4a90919063ffffffff16565b600154604080516370a0823160e01b8152306004820152905192935083926001600160a01b03909216916370a0823191602480820192602092909190829003018186803b158015610c9357600080fd5b505afa158015610ca7573d6000803e3d6000fd5b505050506040513d6020811015610cbd57600080fd5b505110610d4b57600154600480546040805163a9059cbb60e01b81526001600160a01b0392831693810193909352602483018590525192169163a9059cbb916044808201926020929091908290030181600087803b158015610d1e57600080fd5b505af1158015610d32573d6000803e3d6000fd5b505050506040513d6020811015610d4857600080fd5b50505b610d6f610d648561070d85670de0b6b3a7640000611a4a565b600387015490611d3c565b60038601554360028601556001546001600160a01b03166340c10f1930610d968585611aec565b6040518363ffffffff1660e01b815260040180836001600160a01b0316815260200182815260200192505050600060405180830381600087803b158015610ddc57600080fd5b505af1158015610df0573d6000803e3d6000fd5b505060015460048054604080516340c10f1960e01b81526001600160a01b03928316938101939093526024830187905251921693506340c10f19925060448082019260009290919082900301818387803b158015610e4d57600080fd5b505af1158015610e61573d6000803e3d6000fd5b5050505050505050505b5050565b600060078281548110610e7e57fe5b600091825260208083208584526008825260408085203380875293528420805485825560018201959095556005909302018054909450919291610ece916001600160a01b03919091169083611cbe565b604080518281529051859133917fbb757047c2b5f3974fe26b7c10f732e7bce710b0952a71082702781e62ae05959181900360200190a350505050565b60075460005b81811015610e6b57610f2281610add565b600101610f11565b6004546001600160a01b031681565b610f41611d96565b6000546001600160a01b03908116911614610fa3576040805162461bcd60e51b815260206004820181905260248201527f4f776e61626c653a2063616c6c6572206973206e6f7420746865206f776e6572604482015290519081900360640190fd5b600080546040516001600160a01b03909116907f8be0079c531659141344cd1fd0a4f28419497f9722a3daafe3b4186f6b6457e0908390a3600080546001600160a01b0319169055565b6002546001600160a01b03163314611044576040805162461bcd60e51b81526020600482015260156024820152743330b9369d103bb937b733903232bb32b637b832b960591b604482015290519081900360640190fd5b801561105257611052610f0b565b61105b836105be565b6101f48261ffff1611156110a05760405162461bcd60e51b81526004018080602001828103825260258152602001806121816025913960400191505060405180910390fd5b6000600a5443116110b357600a546110b5565b435b6009549091506110c59086611d3c565b6009556040805160a0810182526001600160a01b0395861681526020810196875290810191825260006060820181815261ffff9586166080840190815260078054600181018255935292517fa66cc928b5edb82af9bd49922954155ab7b0942694bea4ce44661d9a8736c688600590930292830180546001600160a01b031916919098161790965595517fa66cc928b5edb82af9bd49922954155ab7b0942694bea4ce44661d9a8736c68987015590517fa66cc928b5edb82af9bd49922954155ab7b0942694bea4ce44661d9a8736c68a86015592517fa66cc928b5edb82af9bd49922954155ab7b0942694bea4ce44661d9a8736c68b8501555090517fa66cc928b5edb82af9bd49922954155ab7b0942694bea4ce44661d9a8736c68c909201805461ffff191692909116919091179055565b6000806007848154811061120957fe5b600091825260208083208784526008825260408085206001600160a01b0389811687529084528186206005959095029092016003810154815483516370a0823160e01b815230600482015293519298509596909590949316926370a082319260248082019391829003018186803b15801561128357600080fd5b505afa158015611297573d6000803e3d6000fd5b505050506040513d60208110156112ad57600080fd5b50516002850154909150431180156112c457508015155b1561131d5760006112d98560020154436114de565b905060006112f660095461070d8860010154610c1e610c17611d10565b90506113186113118461070d84670de0b6b3a7640000611a4a565b8590611d3c565b935050505b6113488360010154610713670de0b6b3a764000061070d868860000154611a4a90919063ffffffff16565b9450505050505b92915050565b6003546001600160a01b031633146113b4576040805162461bcd60e51b815260206004820152601860248201527f736574466565416464726573733a20464f5242494444454e0000000000000000604482015290519081900360640190fd5b6001600160a01b038116611405576040805162461bcd60e51b8152602060048201526013602482015272736574466565416464726573733a205a45524f60681b604482015290519081900360640190fd5b600380546001600160a01b0319166001600160a01b0392909216919091179055565b600a81565b6002546001600160a01b03163314611483576040805162461bcd60e51b81526020600482015260156024820152743330b9369d103bb937b733903232bb32b637b832b960591b604482015290519081900360640190fd5b600280546001600160a01b0319166001600160a01b03831690811790915560405133907f7b4a3682445cf2b8276b6dde2faa9f9a653ea60d9ebadf169518e64f55666aae90600090a350565b6000546001600160a01b031690565b60008183111561151f5760405162461bcd60e51b81526004018080602001828103825260278152602001806122386027913960400191505060405180910390fd5b600554821161153e57611537600a610c1e8486611aec565b905061134f565b6005548310611551576115378284611aec565b61153761156960055484611aec90919063ffffffff16565b611583600a610c1e87600554611aec90919063ffffffff16565b90611d3c565b60086020908152600092835260408084209091529082529020805460019091015482565b6002546001600160a01b031681565b6002546001600160a01b03163314611613576040805162461bcd60e51b81526020600482015260156024820152743330b9369d103bb937b733903232bb32b637b832b960591b604482015290519081900360640190fd5b6101f48261ffff1611156116585760405162461bcd60e51b81526004018080602001828103825260258152602001806122136025913960400191505060405180910390fd5b801561166657611666610f0b565b826007858154811061167457fe5b906000526020600020906005020160010154146116ec576116c2836115836007878154811061169f57fe5b906000526020600020906005020160010154600954611aec90919063ffffffff16565b60098190555082600785815481106116d657fe5b9060005260206000209060050201600101819055505b611700836115836007878154811061169f57fe5b600981905550826007858154811061171457fe5b906000526020600020906005020160010181905550816007858154811061173757fe5b906000526020600020906005020160040160006101000a81548161ffff021916908361ffff16021790555050505050565b600754829081106117bb576040805162461bcd60e51b81526020600482015260186024820152776661726d3a20706f6f6c20646f206e6f742065786973747360401b604482015290519081900360640190fd5b6000600784815481106117ca57fe5b600091825260208083208784526008825260408085203386529092529220600590910290910191506117fb85610add565b8054156118475760006118338260010154610713670de0b6b3a764000061070d87600301548760000154611a4a90919063ffffffff16565b90508015611845576118453382611b2e565b505b83156118d9578154611864906001600160a01b0316333087611d9a565b600482015461ffff16156118ca576004820154600090611891906127109061070d90889061ffff16611a4a565b60035484549192506118b0916001600160a01b03908116911683611cbe565b81546118c29082906107139088611d3c565b8255506118d9565b80546118d69085611d3c565b81555b600382015481546118f791670de0b6b3a76400009161070d91611a4a565b6001820155604080518581529051869133917f90890809c654f11d6e72a28fa60149770a0d11ec6c92319d6ceb2bb0a4ea1a159181900360200190a35050505050565b600b5481565b611948611d96565b6000546001600160a01b039081169116146119aa576040805162461bcd60e51b815260206004820181905260248201527f4f776e61626c653a2063616c6c6572206973206e6f7420746865206f776e6572604482015290519081900360640190fd5b6001600160a01b0381166119ef5760405162461bcd60e51b81526004018080602001828103825260268152602001806121a66026913960400191505060405180910390fd5b600080546040516001600160a01b03808516939216917f8be0079c531659141344cd1fd0a4f28419497f9722a3daafe3b4186f6b6457e091a3600080546001600160a01b0319166001600160a01b0392909216919091179055565b600082611a595750600061134f565b82820282848281611a6657fe5b0414611aa35760405162461bcd60e51b81526004018080602001828103825260218152602001806121f26021913960400191505060405180910390fd5b9392505050565b6000611aa383836040518060400160405280601a81526020017f536166654d6174683a206469766973696f6e206279207a65726f000000000000815250611df4565b6000611aa383836040518060400160405280601e81526020017f536166654d6174683a207375627472616374696f6e206f766572666c6f770000815250611e96565b600154604080516370a0823160e01b815230600482015290516000926001600160a01b0316916370a08231916024808301926020929190829003018186803b158015611b7957600080fd5b505afa158015611b8d573d6000803e3d6000fd5b505050506040513d6020811015611ba357600080fd5b5051905080821115611c37576001546040805163a9059cbb60e01b81526001600160a01b038681166004830152602482018590529151919092169163a9059cbb9160448083019260209291908290030181600087803b158015611c0557600080fd5b505af1158015611c19573d6000803e3d6000fd5b505050506040513d6020811015611c2f57600080fd5b5061064e9050565b6001546040805163a9059cbb60e01b81526001600160a01b038681166004830152602482018690529151919092169163a9059cbb9160448083019260209291908290030181600087803b158015611c8d57600080fd5b505af1158015611ca1573d6000803e3d6000fd5b505050506040513d6020811015611cb757600080fd5b5050505050565b604080516001600160a01b038416602482015260448082018490528251808303909101815260649091019091526020810180516001600160e01b031663a9059cbb60e01b17905261064e908490611ef0565b6000600a5462112380014311611d2e5750661771d8b356580061055a565b506612c17ed129a80061055a565b600082820183811015611aa3576040805162461bcd60e51b815260206004820152601b60248201527f536166654d6174683a206164646974696f6e206f766572666c6f770000000000604482015290519081900360640190fd5b3390565b604080516001600160a01b0380861660248301528416604482015260648082018490528251808303909101815260849091019091526020810180516001600160e01b03166323b872dd60e01b1790526107a8908590611ef0565b60008183611e805760405162461bcd60e51b81526004018080602001828103825283818151815260200191508051906020019080838360005b83811015611e45578181015183820152602001611e2d565b50505050905090810190601f168015611e725780820380516001836020036101000a031916815260200191505b509250505060405180910390fd5b506000838581611e8c57fe5b0495945050505050565b60008184841115611ee85760405162461bcd60e51b8152602060048201818152835160248401528351909283926044909101919085019080838360008315611e45578181015183820152602001611e2d565b505050900390565b6060611f45826040518060400160405280602081526020017f5361666545524332303a206c6f772d6c6576656c2063616c6c206661696c6564815250856001600160a01b0316611fa19092919063ffffffff16565b80519091501561064e57808060200190516020811015611f6457600080fd5b505161064e5760405162461bcd60e51b815260040180806020018281038252602a81526020018061225f602a913960400191505060405180910390fd5b6060611fb08484600085611fb8565b949350505050565b606082471015611ff95760405162461bcd60e51b81526004018080602001828103825260268152602001806121cc6026913960400191505060405180910390fd5b61200285612114565b612053576040805162461bcd60e51b815260206004820152601d60248201527f416464726573733a2063616c6c20746f206e6f6e2d636f6e7472616374000000604482015290519081900360640190fd5b60006060866001600160a01b031685876040518082805190602001908083835b602083106120925780518252601f199092019160209182019101612073565b6001836020036101000a03801982511681845116808217855250505050505090500191505060006040518083038185875af1925050503d80600081146120f4576040519150601f19603f3d011682016040523d82523d6000602084013e6120f9565b606091505b509150915061210982828661211a565b979650505050505050565b3b151590565b60608315612129575081611aa3565b8251156121395782518084602001fd5b60405162461bcd60e51b8152602060048201818152845160248401528451859391928392604401919085019080838360008315611e45578181015183820152602001611e2d56fe6164643a20696e76616c6964206465706f7369742066656520626173697320706f696e74734f776e61626c653a206e6577206f776e657220697320746865207a65726f2061646472657373416464726573733a20696e73756666696369656e742062616c616e636520666f722063616c6c536166654d6174683a206d756c7469706c69636174696f6e206f766572666c6f777365743a20696e76616c6964206465706f7369742066656520626173697320706f696e74735f66726f6d206d757374206265206c657373207468616e206f7220657175616c20746f205f746f5361666545524332303a204552433230206f7065726174696f6e20646964206e6f742073756363656564a26469706673582212205aa28054445b4f724565289eb8e740a17a7178b206fb16d601889f64e7a3a7df64736f6c63430007050033",
    "sourcePath": "c:/Users/m/Desktop/NFTLFarming/NFTLFarming.sol",
    "compiler": {
        "name": "solc",
        "version": "0.7.5+commit.eb77ed08"
    },
    "functionHashes": {
        "BONUS_MULTIPLIER()": "8aa28550",
        "NFTLPerBlock()": "1a8c381f",
        "add(uint256,address,uint16,bool)": "84e82a33",
        "bonusEndBlock()": "1aed6553",
        "changeNFTLPerBlock(uint256)": "3b300a28",
        "checkPoolDuplicate(address)": "322d0d4a",
        "claim(uint256)": "379607f5",
        "deposit(uint256,uint256)": "e2bbb158",
        "dev(address)": "8d88a90e",
        "devaddr()": "d49e77cd",
        "emergencyWithdraw(uint256)": "5312ea8e",
        "feeAddress()": "41275358",
        "getMultiplier(uint256,uint256)": "8dbb1e3a",
        "massUpdatePools()": "630b5ba1",
        "nftl()": "4e81da0a",
        "owner()": "8da5cb5b",
        "pendingNFTL(uint256,address)": "859d12ab",
        "poolInfo(uint256)": "1526fe27",
        "poolLength()": "081e3eda",
        "renounceOwnership()": "715018a6",
        "set(uint256,uint256,uint16,bool)": "d9638422",
        "setFeeAddress(address)": "8705fcd4",
        "startBlock()": "48cd4cb1",
        "teamRewardsReceiver()": "6e8d3655",
        "teamShare()": "ea6ef2fe",
        "totalAllocPoint()": "17caf6f1",
        "transferOwnership(address)": "f2fde38b",
        "updatePool(uint256)": "51eb05a6",
        "updateTeamShare(uint256)": "48b4e8fd",
        "userInfo(uint256,address)": "93f1a40b",
        "withdraw(uint256,uint256)": "441a3e70"
    },
    "gasEstimates": {
        "creation": {
            "codeDepositCost": "1778800",
            "executionCost": "infinite",
            "totalCost": "infinite"
        },
        "external": {
            "BONUS_MULTIPLIER()": "287",
            "NFTLPerBlock()": "1044",
            "add(uint256,address,uint16,bool)": "infinite",
            "bonusEndBlock()": "1066",
            "changeNFTLPerBlock(uint256)": "21915",
            "checkPoolDuplicate(address)": "infinite",
            "claim(uint256)": "infinite",
            "deposit(uint256,uint256)": "infinite",
            "dev(address)": "23543",
            "devaddr()": "1148",
            "emergencyWithdraw(uint256)": "infinite",
            "feeAddress()": "1105",
            "getMultiplier(uint256,uint256)": "infinite",
            "massUpdatePools()": "infinite",
            "nftl()": "1104",
            "owner()": "1082",
            "pendingNFTL(uint256,address)": "infinite",
            "poolInfo(uint256)": "5403",
            "poolLength()": "1046",
            "renounceOwnership()": "24294",
            "set(uint256,uint256,uint16,bool)": "infinite",
            "setFeeAddress(address)": "22015",
            "startBlock()": "1043",
            "teamRewardsReceiver()": "1105",
            "teamShare()": "1086",
            "totalAllocPoint()": "1089",
            "transferOwnership(address)": "infinite",
            "updatePool(uint256)": "infinite",
            "updateTeamShare(uint256)": "21195",
            "userInfo(uint256,address)": "2139",
            "withdraw(uint256,uint256)": "infinite"
        },
        "internal": {
            "getRewardsPerBlock()": "860",
            "safeNFTLTransfer(address,uint256)": "infinite"
        }
    }
}