{
    "contractName": "DAOS",
    "abi": [
        {
            "inputs": [],
            "stateMutability": "nonpayable",
            "type": "constructor"
        },
        {
            "anonymous": false,
            "inputs": [
                {
                    "indexed": true,
                    "internalType": "address",
                    "name": "owner",
                    "type": "address"
                },
                {
                    "indexed": true,
                    "internalType": "address",
                    "name": "spender",
                    "type": "address"
                },
                {
                    "indexed": false,
                    "internalType": "uint256",
                    "name": "value",
                    "type": "uint256"
                }
            ],
            "name": "Approval",
            "type": "event"
        },
        {
            "anonymous": false,
            "inputs": [
                {
                    "indexed": true,
                    "internalType": "address",
                    "name": "farmingContractAddress",
                    "type": "address"
                },
                {
                    "indexed": true,
                    "internalType": "address",
                    "name": "_owner",
                    "type": "address"
                }
            ],
            "name": "ChangedFarmingContract",
            "type": "event"
        },
        {
            "anonymous": false,
            "inputs": [
                {
                    "indexed": true,
                    "internalType": "address",
                    "name": "previousOwner",
                    "type": "address"
                },
                {
                    "indexed": true,
                    "internalType": "address",
                    "name": "newOwner",
                    "type": "address"
                }
            ],
            "name": "OwnershipTransferred",
            "type": "event"
        },
        {
            "anonymous": false,
            "inputs": [
                {
                    "indexed": true,
                    "internalType": "address",
                    "name": "from",
                    "type": "address"
                },
                {
                    "indexed": true,
                    "internalType": "address",
                    "name": "to",
                    "type": "address"
                },
                {
                    "indexed": false,
                    "internalType": "uint256",
                    "name": "value",
                    "type": "uint256"
                }
            ],
            "name": "Transfer",
            "type": "event"
        },
        {
            "inputs": [
                {
                    "internalType": "address",
                    "name": "owner",
                    "type": "address"
                },
                {
                    "internalType": "address",
                    "name": "spender",
                    "type": "address"
                }
            ],
            "name": "allowance",
            "outputs": [
                {
                    "internalType": "uint256",
                    "name": "",
                    "type": "uint256"
                }
            ],
            "stateMutability": "view",
            "type": "function"
        },
        {
            "inputs": [
                {
                    "internalType": "address",
                    "name": "spender",
                    "type": "address"
                },
                {
                    "internalType": "uint256",
                    "name": "amount",
                    "type": "uint256"
                }
            ],
            "name": "approve",
            "outputs": [
                {
                    "internalType": "bool",
                    "name": "",
                    "type": "bool"
                }
            ],
            "stateMutability": "nonpayable",
            "type": "function"
        },
        {
            "inputs": [
                {
                    "internalType": "address",
                    "name": "account",
                    "type": "address"
                }
            ],
            "name": "balanceOf",
            "outputs": [
                {
                    "internalType": "uint256",
                    "name": "",
                    "type": "uint256"
                }
            ],
            "stateMutability": "view",
            "type": "function"
        },
        {
            "inputs": [
                {
                    "internalType": "address",
                    "name": "_farmingContractAddress",
                    "type": "address"
                }
            ],
            "name": "changeFarmingContract",
            "outputs": [],
            "stateMutability": "nonpayable",
            "type": "function"
        },
        {
            "inputs": [
                {
                    "internalType": "address",
                    "name": "_address",
                    "type": "address"
                }
            ],
            "name": "changeV1Address",
            "outputs": [],
            "stateMutability": "nonpayable",
            "type": "function"
        },
        {
            "inputs": [
                {
                    "internalType": "address",
                    "name": "_address",
                    "type": "address"
                }
            ],
            "name": "changeV2Address",
            "outputs": [],
            "stateMutability": "nonpayable",
            "type": "function"
        },
        {
            "inputs": [],
            "name": "decimals",
            "outputs": [
                {
                    "internalType": "uint8",
                    "name": "",
                    "type": "uint8"
                }
            ],
            "stateMutability": "view",
            "type": "function"
        },
        {
            "inputs": [
                {
                    "internalType": "address",
                    "name": "spender",
                    "type": "address"
                },
                {
                    "internalType": "uint256",
                    "name": "subtractedValue",
                    "type": "uint256"
                }
            ],
            "name": "decreaseAllowance",
            "outputs": [
                {
                    "internalType": "bool",
                    "name": "",
                    "type": "bool"
                }
            ],
            "stateMutability": "nonpayable",
            "type": "function"
        },
        {
            "inputs": [],
            "name": "farmingContract",
            "outputs": [
                {
                    "internalType": "address",
                    "name": "",
                    "type": "address"
                }
            ],
            "stateMutability": "view",
            "type": "function"
        },
        {
            "inputs": [
                {
                    "internalType": "address",
                    "name": "spender",
                    "type": "address"
                },
                {
                    "internalType": "uint256",
                    "name": "addedValue",
                    "type": "uint256"
                }
            ],
            "name": "increaseAllowance",
            "outputs": [
                {
                    "internalType": "bool",
                    "name": "",
                    "type": "bool"
                }
            ],
            "stateMutability": "nonpayable",
            "type": "function"
        },
        {
            "inputs": [],
            "name": "migrateV1",
            "outputs": [],
            "stateMutability": "nonpayable",
            "type": "function"
        },
        {
            "inputs": [],
            "name": "migrateV2",
            "outputs": [],
            "stateMutability": "nonpayable",
            "type": "function"
        },
        {
            "inputs": [
                {
                    "internalType": "address",
                    "name": "_to",
                    "type": "address"
                },
                {
                    "internalType": "uint256",
                    "name": "_amt",
                    "type": "uint256"
                }
            ],
            "name": "mint",
            "outputs": [],
            "stateMutability": "nonpayable",
            "type": "function"
        },
        {
            "inputs": [],
            "name": "name",
            "outputs": [
                {
                    "internalType": "string",
                    "name": "",
                    "type": "string"
                }
            ],
            "stateMutability": "view",
            "type": "function"
        },
        {
            "inputs": [],
            "name": "oldNFTLV1",
            "outputs": [
                {
                    "internalType": "contract IERC20",
                    "name": "",
                    "type": "address"
                }
            ],
            "stateMutability": "view",
            "type": "function"
        },
        {
            "inputs": [],
            "name": "oldNFTLV2",
            "outputs": [
                {
                    "internalType": "contract IERC20",
                    "name": "",
                    "type": "address"
                }
            ],
            "stateMutability": "view",
            "type": "function"
        },
        {
            "inputs": [],
            "name": "owner",
            "outputs": [
                {
                    "internalType": "address",
                    "name": "",
                    "type": "address"
                }
            ],
            "stateMutability": "view",
            "type": "function"
        },
        {
            "inputs": [],
            "name": "renounceOwnership",
            "outputs": [],
            "stateMutability": "nonpayable",
            "type": "function"
        },
        {
            "inputs": [],
            "name": "symbol",
            "outputs": [
                {
                    "internalType": "string",
                    "name": "",
                    "type": "string"
                }
            ],
            "stateMutability": "view",
            "type": "function"
        },
        {
            "inputs": [],
            "name": "totalSupply",
            "outputs": [
                {
                    "internalType": "uint256",
                    "name": "",
                    "type": "uint256"
                }
            ],
            "stateMutability": "view",
            "type": "function"
        },
        {
            "inputs": [
                {
                    "internalType": "address",
                    "name": "recipient",
                    "type": "address"
                },
                {
                    "internalType": "uint256",
                    "name": "amount",
                    "type": "uint256"
                }
            ],
            "name": "transfer",
            "outputs": [
                {
                    "internalType": "bool",
                    "name": "",
                    "type": "bool"
                }
            ],
            "stateMutability": "nonpayable",
            "type": "function"
        },
        {
            "inputs": [
                {
                    "internalType": "address",
                    "name": "sender",
                    "type": "address"
                },
                {
                    "internalType": "address",
                    "name": "recipient",
                    "type": "address"
                },
                {
                    "internalType": "uint256",
                    "name": "amount",
                    "type": "uint256"
                }
            ],
            "name": "transferFrom",
            "outputs": [
                {
                    "internalType": "bool",
                    "name": "",
                    "type": "bool"
                }
            ],
            "stateMutability": "nonpayable",
            "type": "function"
        },
        {
            "inputs": [
                {
                    "internalType": "address",
                    "name": "newOwner",
                    "type": "address"
                }
            ],
            "name": "transferOwnership",
            "outputs": [],
            "stateMutability": "nonpayable",
            "type": "function"
        }
    ],
    "bytecode": "60806040526a1581b6d300d0225a0000006007556a01287626ee52197b0000006008556a30cdbc68a93ac41b000000600955600c80546001600160a01b031990811673a360d692caf8b48667fd7675f2f487e3d27a36b217909155600d80549091167366570239a4b3292f2f3309595912a9b0b6e036d21790553480156200008657600080fd5b5060408051808201825260048082526344414f5360e01b602080840182815285518087019096529285528401528151919291620000c691600391620002e5565b508051620000dc906004906020840190620002e5565b50506005805460ff19166012179055506000620000f86200016b565b60058054610100600160a81b0319166101006001600160a01b03841690810291909117909155604051919250906000907f8be0079c531659141344cd1fd0a4f28419497f9722a3daafe3b4186f6b6457e0908290a350620001656200015c6200016b565b6007546200016f565b62000391565b3390565b6001600160a01b038216620001cb576040805162461bcd60e51b815260206004820152601f60248201527f45524332303a206d696e7420746f20746865207a65726f206164647265737300604482015290519081900360640190fd5b620001d9600083836200027e565b620001f5816002546200028360201b6200109a1790919060201c565b6002556001600160a01b03821660009081526020818152604090912054620002289183906200109a62000283821b17901c565b6001600160a01b0383166000818152602081815260408083209490945583518581529351929391927fddf252ad1be2c89b69c2b068fc378daa952ba7f163c4a11628f55a4df523b3ef9281900390910190a35050565b505050565b600082820183811015620002de576040805162461bcd60e51b815260206004820152601b60248201527f536166654d6174683a206164646974696f6e206f766572666c6f770000000000604482015290519081900360640190fd5b9392505050565b828054600181600116156101000203166002900490600052602060002090601f0160209004810192826200031d576000855562000368565b82601f106200033857805160ff191683800117855562000368565b8280016001018555821562000368579182015b82811115620003685782518255916020019190600101906200034b565b50620003769291506200037a565b5090565b5b808211156200037657600081556001016200037b565b61169780620003a16000396000f3fe608060405234801561001057600080fd5b506004361061014d5760003560e01c806370a08231116100c3578063a457c2d71161007c578063a457c2d71461039d578063a56064ff146103c9578063a9059cbb146103ef578063dd62ed3e1461041b578063df2fb8d614610449578063f2fde38b146104515761014d565b806370a0823114610331578063715018a6146103575780638da5cb5b1461035f57806394e96f051461036757806395d89b411461038d578063a44a39a1146103955761014d565b8063313ce56711610115578063313ce56714610283578063373926f7146102a157806339509351146102ab57806340c10f19146102d757806350e6397514610303578063566ba48a146103295761014d565b806302eec5681461015257806306fdde0314610176578063095ea7b3146101f357806318160ddd1461023357806323b872dd1461024d575b600080fd5b61015a610477565b604080516001600160a01b039092168252519081900360200190f35b61017e610486565b6040805160208082528351818301528351919283929083019185019080838360005b838110156101b85781810151838201526020016101a0565b50505050905090810190601f1680156101e55780820380516001836020036101000a031916815260200191505b509250505060405180910390f35b61021f6004803603604081101561020957600080fd5b506001600160a01b03813516906020013561051c565b604080519115158252519081900360200190f35b61023b610539565b60408051918252519081900360200190f35b61021f6004803603606081101561026357600080fd5b506001600160a01b0381358116916020810135909116906040013561053f565b61028b6105c6565b6040805160ff9092168252519081900360200190f35b6102a96105cf565b005b61021f600480360360408110156102c157600080fd5b506001600160a01b0381351690602001356107b9565b6102a9600480360360408110156102ed57600080fd5b506001600160a01b038135169060200135610807565b6102a96004803603602081101561031957600080fd5b50356001600160a01b03166108db565b61015a6109b3565b61023b6004803603602081101561034757600080fd5b50356001600160a01b03166109c2565b6102a96109dd565b61015a610a8a565b6102a96004803603602081101561037d57600080fd5b50356001600160a01b0316610a9e565b61017e610b76565b61015a610bd7565b61021f600480360360408110156103b357600080fd5b506001600160a01b038135169060200135610be6565b6102a9600480360360208110156103df57600080fd5b50356001600160a01b0316610c4e565b61021f6004803603604081101561040557600080fd5b506001600160a01b038135169060200135610d6e565b61023b6004803603604081101561043157600080fd5b506001600160a01b0381358116916020013516610d82565b6102a9610dad565b6102a96004803603602081101561046757600080fd5b50356001600160a01b0316610f91565b6006546001600160a01b031681565b60038054604080516020601f60026000196101006001881615020190951694909404938401819004810282018101909252828152606093909290918301828280156105125780601f106104e757610100808354040283529160200191610512565b820191906000526020600020905b8154815290600101906020018083116104f557829003601f168201915b5050505050905090565b60006105306105296110fb565b84846110ff565b50600192915050565b60025490565b600061054c8484846111eb565b6105bc846105586110fb565b6105b7856040518060600160405280602881526020016115ac602891396001600160a01b038a166000908152600160205260408120906105966110fb565b6001600160a01b031681526020810191909152604001600020549190611346565b6110ff565b5060019392505050565b60055460ff1690565b600d546000906001600160a01b03166370a082316105eb6110fb565b6040518263ffffffff1660e01b815260040180826001600160a01b0316815260200191505060206040518083038186803b15801561062857600080fd5b505afa15801561063c573d6000803e3d6000fd5b505050506040513d602081101561065257600080fd5b50519050806106a8576040805162461bcd60e51b815260206004820152601f60248201527f4e6f7420656c696769626c6520746f206d6967726174652066726f6d20563200604482015290519081900360640190fd5b600954600b546106b8908361109a565b11156106f55760405162461bcd60e51b81526004018080602001828103825260248152602001806115886024913960400191505060405180910390fd5b600d546001600160a01b03166323b872dd61070e6110fb565b61dead846040518463ffffffff1660e01b815260040180846001600160a01b03168152602001836001600160a01b031681526020018281526020019350505050602060405180830381600087803b15801561076857600080fd5b505af115801561077c573d6000803e3d6000fd5b505050506040513d602081101561079257600080fd5b506107a690506107a06110fb565b826113dd565b600b546107b3908261109a565b600b5550565b60006105306107c66110fb565b846105b785600160006107d76110fb565b6001600160a01b03908116825260208083019390935260409182016000908120918c16815292529020549061109a565b6006546001600160a01b03163314610866576040805162461bcd60e51b815260206004820152601e60248201527f596f7520617265206e6f7420617574686f726973656420746f206d696e740000604482015290519081900360640190fd5b6a4777e962985cfff00000006108848261087e610539565b9061109a565b11156108cd576040805162461bcd60e51b8152602060048201526013602482015272556e61626c6520746f206d696e74206d6f726560681b604482015290519081900360640190fd5b6108d782826113dd565b5050565b6108e36110fb565b60055461010090046001600160a01b03908116911614610938576040805162461bcd60e51b815260206004820181905260248201526000805160206115d4833981519152604482015290519081900360640190fd5b600d546001600160a01b0382811691161415610991576040805162461bcd60e51b815260206004820152601360248201527241646472657373206973207468652073616d6560681b604482015290519081900360640190fd5b600d80546001600160a01b0319166001600160a01b0392909216919091179055565b600d546001600160a01b031681565b6001600160a01b031660009081526020819052604090205490565b6109e56110fb565b60055461010090046001600160a01b03908116911614610a3a576040805162461bcd60e51b815260206004820181905260248201526000805160206115d4833981519152604482015290519081900360640190fd5b60055460405160009161010090046001600160a01b0316907f8be0079c531659141344cd1fd0a4f28419497f9722a3daafe3b4186f6b6457e0908390a360058054610100600160a81b0319169055565b60055461010090046001600160a01b031690565b610aa66110fb565b60055461010090046001600160a01b03908116911614610afb576040805162461bcd60e51b815260206004820181905260248201526000805160206115d4833981519152604482015290519081900360640190fd5b600c546001600160a01b0382811691161415610b54576040805162461bcd60e51b815260206004820152601360248201527241646472657373206973207468652073616d6560681b604482015290519081900360640190fd5b600c80546001600160a01b0319166001600160a01b0392909216919091179055565b60048054604080516020601f60026000196101006001881615020190951694909404938401819004810282018101909252828152606093909290918301828280156105125780601f106104e757610100808354040283529160200191610512565b600c546001600160a01b031681565b6000610530610bf36110fb565b846105b78560405180606001604052806025815260200161163d6025913960016000610c1d6110fb565b6001600160a01b03908116825260208083019390935260409182016000908120918d16815292529020549190611346565b610c566110fb565b60055461010090046001600160a01b03908116911614610cab576040805162461bcd60e51b815260206004820181905260248201526000805160206115d4833981519152604482015290519081900360640190fd5b6006546001600160a01b031615610d09576040805162461bcd60e51b815260206004820152601e60248201527f4661726d696e6720436f6e747261637420416c72656164792041646465640000604482015290519081900360640190fd5b600680546001600160a01b0319166001600160a01b038316179055610d2c6110fb565b6001600160a01b0316816001600160a01b03167febfeaa674d61613fd7fce8ef365ee6e76b518ed5553bddb32afefe2dada7f49160405160405180910390a350565b6000610530610d7b6110fb565b84846111eb565b6001600160a01b03918216600090815260016020908152604080832093909416825291909152205490565b600c546000906001600160a01b03166370a08231610dc96110fb565b6040518263ffffffff1660e01b815260040180826001600160a01b0316815260200191505060206040518083038186803b158015610e0657600080fd5b505afa158015610e1a573d6000803e3d6000fd5b505050506040513d6020811015610e3057600080fd5b5051905080610e86576040805162461bcd60e51b815260206004820152601f60248201527f4e6f7420656c696769626c6520746f206d6967726174652066726f6d20563100604482015290519081900360640190fd5b600854600a54610e96908361109a565b1115610ed35760405162461bcd60e51b81526004018080602001828103825260248152602001806114d36024913960400191505060405180910390fd5b600c546001600160a01b03166323b872dd610eec6110fb565b61dead846040518463ffffffff1660e01b815260040180846001600160a01b03168152602001836001600160a01b031681526020018281526020019350505050602060405180830381600087803b158015610f4657600080fd5b505af1158015610f5a573d6000803e3d6000fd5b505050506040513d6020811015610f7057600080fd5b50610f7e90506107a06110fb565b600a54610f8b908261109a565b600a5550565b610f996110fb565b60055461010090046001600160a01b03908116911614610fee576040805162461bcd60e51b815260206004820181905260248201526000805160206115d4833981519152604482015290519081900360640190fd5b6001600160a01b0381166110335760405162461bcd60e51b815260040180806020018281038252602681526020018061151a6026913960400191505060405180910390fd5b6005546040516001600160a01b0380841692610100900416907f8be0079c531659141344cd1fd0a4f28419497f9722a3daafe3b4186f6b6457e090600090a3600580546001600160a01b0390921661010002610100600160a81b0319909216919091179055565b6000828201838110156110f4576040805162461bcd60e51b815260206004820152601b60248201527f536166654d6174683a206164646974696f6e206f766572666c6f770000000000604482015290519081900360640190fd5b9392505050565b3390565b6001600160a01b0383166111445760405162461bcd60e51b81526004018080602001828103825260248152602001806116196024913960400191505060405180910390fd5b6001600160a01b0382166111895760405162461bcd60e51b81526004018080602001828103825260228152602001806115406022913960400191505060405180910390fd5b6001600160a01b03808416600081815260016020908152604080832094871680845294825291829020859055815185815291517f8c5be1e5ebec7d5bd14f71427d1e84f3dd0314c0f7b2291e5b200ac8c7c3b9259281900390910190a3505050565b6001600160a01b0383166112305760405162461bcd60e51b81526004018080602001828103825260258152602001806115f46025913960400191505060405180910390fd5b6001600160a01b0382166112755760405162461bcd60e51b81526004018080602001828103825260238152602001806114f76023913960400191505060405180910390fd5b6112808383836114cd565b6112bd81604051806060016040528060268152602001611562602691396001600160a01b0386166000908152602081905260409020549190611346565b6001600160a01b0380851660009081526020819052604080822093909355908416815220546112ec908261109a565b6001600160a01b038084166000818152602081815260409182902094909455805185815290519193928716927fddf252ad1be2c89b69c2b068fc378daa952ba7f163c4a11628f55a4df523b3ef92918290030190a3505050565b600081848411156113d55760405162461bcd60e51b81526004018080602001828103825283818151815260200191508051906020019080838360005b8381101561139a578181015183820152602001611382565b50505050905090810190601f1680156113c75780820380516001836020036101000a031916815260200191505b509250505060405180910390fd5b505050900390565b6001600160a01b038216611438576040805162461bcd60e51b815260206004820152601f60248201527f45524332303a206d696e7420746f20746865207a65726f206164647265737300604482015290519081900360640190fd5b611444600083836114cd565b600254611451908261109a565b6002556001600160a01b038216600090815260208190526040902054611477908261109a565b6001600160a01b0383166000818152602081815260408083209490945583518581529351929391927fddf252ad1be2c89b69c2b068fc378daa952ba7f163c4a11628f55a4df523b3ef9281900390910190a35050565b50505056fe56313a2043616e74206d696772617465206d6f7265207468616e20616c6c6f636174656445524332303a207472616e7366657220746f20746865207a65726f20616464726573734f776e61626c653a206e6577206f776e657220697320746865207a65726f206164647265737345524332303a20617070726f766520746f20746865207a65726f206164647265737345524332303a207472616e7366657220616d6f756e7420657863656564732062616c616e636556323a2043616e74206d696772617465206d6f7265207468616e20616c6c6f636174656445524332303a207472616e7366657220616d6f756e74206578636565647320616c6c6f77616e63654f776e61626c653a2063616c6c6572206973206e6f7420746865206f776e657245524332303a207472616e736665722066726f6d20746865207a65726f206164647265737345524332303a20617070726f76652066726f6d20746865207a65726f206164647265737345524332303a2064656372656173656420616c6c6f77616e63652062656c6f77207a65726fa26469706673582212204aaf761162f09f0e8440aa84a98fda41923f97edcb5cd85b1ede682a6ba5468e64736f6c63430007050033",
    "sourcePath": "c:/Users/m/Desktop/DAOS/DAOS.sol",
    "compiler": {
        "name": "solc",
        "version": "0.7.5+commit.eb77ed08"
    },
    "functionHashes": {
        "allowance(address,address)": "dd62ed3e",
        "approve(address,uint256)": "095ea7b3",
        "balanceOf(address)": "70a08231",
        "changeFarmingContract(address)": "a56064ff",
        "changeV1Address(address)": "94e96f05",
        "changeV2Address(address)": "50e63975",
        "decimals()": "313ce567",
        "decreaseAllowance(address,uint256)": "a457c2d7",
        "farmingContract()": "02eec568",
        "increaseAllowance(address,uint256)": "39509351",
        "migrateV1()": "df2fb8d6",
        "migrateV2()": "373926f7",
        "mint(address,uint256)": "40c10f19",
        "name()": "06fdde03",
        "oldNFTLV1()": "a44a39a1",
        "oldNFTLV2()": "566ba48a",
        "owner()": "8da5cb5b",
        "renounceOwnership()": "715018a6",
        "symbol()": "95d89b41",
        "totalSupply()": "18160ddd",
        "transfer(address,uint256)": "a9059cbb",
        "transferFrom(address,address,uint256)": "23b872dd",
        "transferOwnership(address)": "f2fde38b"
    },
    "gasEstimates": {
        "creation": {
            "codeDepositCost": "1156600",
            "executionCost": "infinite",
            "totalCost": "infinite"
        },
        "external": {
            "allowance(address,address)": "1338",
            "approve(address,uint256)": "infinite",
            "balanceOf(address)": "1168",
            "changeFarmingContract(address)": "infinite",
            "changeV1Address(address)": "infinite",
            "changeV2Address(address)": "infinite",
            "decimals()": "1036",
            "decreaseAllowance(address,uint256)": "infinite",
            "farmingContract()": "1061",
            "increaseAllowance(address,uint256)": "infinite",
            "migrateV1()": "infinite",
            "migrateV2()": "infinite",
            "mint(address,uint256)": "infinite",
            "name()": "infinite",
            "oldNFTLV1()": "1170",
            "oldNFTLV2()": "1170",
            "owner()": "1115",
            "renounceOwnership()": "infinite",
            "symbol()": "infinite",
            "totalSupply()": "1088",
            "transfer(address,uint256)": "infinite",
            "transferFrom(address,address,uint256)": "infinite",
            "transferOwnership(address)": "infinite"
        }
    }
}