{
    "contractName": "CTFFarm",
    "abi": [
        {
            "inputs": [
                {
                    "internalType": "contract CTF",
                    "name": "_ctf",
                    "type": "address"
                },
                {
                    "internalType": "address",
                    "name": "_devaddr",
                    "type": "address"
                },
                {
                    "internalType": "address",
                    "name": "_teamRewardsReceiver",
                    "type": "address"
                },
                {
                    "internalType": "uint256",
                    "name": "_teamShare",
                    "type": "uint256"
                },
                {
                    "internalType": "uint256",
                    "name": "_startBlock",
                    "type": "uint256"
                }
            ],
            "stateMutability": "nonpayable",
            "type": "constructor"
        },
        {
            "anonymous": false,
            "inputs": [
                {
                    "indexed": true,
                    "internalType": "address",
                    "name": "user",
                    "type": "address"
                },
                {
                    "indexed": true,
                    "internalType": "uint256",
                    "name": "pid",
                    "type": "uint256"
                },
                {
                    "indexed": false,
                    "internalType": "uint256",
                    "name": "amount",
                    "type": "uint256"
                }
            ],
            "name": "Deposit",
            "type": "event"
        },
        {
            "anonymous": false,
            "inputs": [
                {
                    "indexed": true,
                    "internalType": "address",
                    "name": "user",
                    "type": "address"
                },
                {
                    "indexed": true,
                    "internalType": "uint256",
                    "name": "pid",
                    "type": "uint256"
                },
                {
                    "indexed": false,
                    "internalType": "uint256",
                    "name": "amount",
                    "type": "uint256"
                }
            ],
            "name": "EmergencyWithdraw",
            "type": "event"
        },
        {
            "anonymous": false,
            "inputs": [
                {
                    "indexed": true,
                    "internalType": "address",
                    "name": "previousOwner",
                    "type": "address"
                },
                {
                    "indexed": true,
                    "internalType": "address",
                    "name": "newOwner",
                    "type": "address"
                }
            ],
            "name": "OwnershipTransferred",
            "type": "event"
        },
        {
            "anonymous": false,
            "inputs": [
                {
                    "indexed": true,
                    "internalType": "address",
                    "name": "user",
                    "type": "address"
                },
                {
                    "indexed": true,
                    "internalType": "address",
                    "name": "_devaddr",
                    "type": "address"
                }
            ],
            "name": "SetDev",
            "type": "event"
        },
        {
            "anonymous": false,
            "inputs": [
                {
                    "indexed": true,
                    "internalType": "address",
                    "name": "user",
                    "type": "address"
                },
                {
                    "indexed": true,
                    "internalType": "uint256",
                    "name": "pid",
                    "type": "uint256"
                },
                {
                    "indexed": false,
                    "internalType": "uint256",
                    "name": "amount",
                    "type": "uint256"
                }
            ],
            "name": "Withdraw",
            "type": "event"
        },
        {
            "inputs": [],
            "name": "CTFPerBlock",
            "outputs": [
                {
                    "internalType": "uint256",
                    "name": "",
                    "type": "uint256"
                }
            ],
            "stateMutability": "view",
            "type": "function"
        },
        {
            "inputs": [
                {
                    "internalType": "uint256",
                    "name": "_allocPoint",
                    "type": "uint256"
                },
                {
                    "internalType": "contract IERC20",
                    "name": "_token",
                    "type": "address"
                },
                {
                    "internalType": "uint16",
                    "name": "_depositFeeBP",
                    "type": "uint16"
                },
                {
                    "internalType": "bool",
                    "name": "_withUpdate",
                    "type": "bool"
                }
            ],
            "name": "add",
            "outputs": [],
            "stateMutability": "nonpayable",
            "type": "function"
        },
        {
            "inputs": [
                {
                    "internalType": "contract IERC20",
                    "name": "_token",
                    "type": "address"
                }
            ],
            "name": "checkPoolDuplicate",
            "outputs": [],
            "stateMutability": "view",
            "type": "function"
        },
        {
            "inputs": [
                {
                    "internalType": "uint256",
                    "name": "_pid",
                    "type": "uint256"
                }
            ],
            "name": "claim",
            "outputs": [],
            "stateMutability": "nonpayable",
            "type": "function"
        },
        {
            "inputs": [],
            "name": "ctf",
            "outputs": [
                {
                    "internalType": "contract CTF",
                    "name": "",
                    "type": "address"
                }
            ],
            "stateMutability": "view",
            "type": "function"
        },
        {
            "inputs": [
                {
                    "internalType": "uint256",
                    "name": "_pid",
                    "type": "uint256"
                },
                {
                    "internalType": "uint256",
                    "name": "_amount",
                    "type": "uint256"
                }
            ],
            "name": "deposit",
            "outputs": [],
            "stateMutability": "nonpayable",
            "type": "function"
        },
        {
            "inputs": [
                {
                    "internalType": "address",
                    "name": "_devaddr",
                    "type": "address"
                }
            ],
            "name": "dev",
            "outputs": [],
            "stateMutability": "nonpayable",
            "type": "function"
        },
        {
            "inputs": [],
            "name": "devaddr",
            "outputs": [
                {
                    "internalType": "address",
                    "name": "",
                    "type": "address"
                }
            ],
            "stateMutability": "view",
            "type": "function"
        },
        {
            "inputs": [
                {
                    "internalType": "uint256",
                    "name": "_pid",
                    "type": "uint256"
                }
            ],
            "name": "emergencyWithdraw",
            "outputs": [],
            "stateMutability": "nonpayable",
            "type": "function"
        },
        {
            "inputs": [],
            "name": "feeAddress",
            "outputs": [
                {
                    "internalType": "address",
                    "name": "",
                    "type": "address"
                }
            ],
            "stateMutability": "view",
            "type": "function"
        },
        {
            "inputs": [],
            "name": "lastChange",
            "outputs": [
                {
                    "internalType": "uint256",
                    "name": "",
                    "type": "uint256"
                }
            ],
            "stateMutability": "view",
            "type": "function"
        },
        {
            "inputs": [],
            "name": "massUpdatePools",
            "outputs": [],
            "stateMutability": "nonpayable",
            "type": "function"
        },
        {
            "inputs": [],
            "name": "owner",
            "outputs": [
                {
                    "internalType": "address",
                    "name": "",
                    "type": "address"
                }
            ],
            "stateMutability": "view",
            "type": "function"
        },
        {
            "inputs": [
                {
                    "internalType": "uint256",
                    "name": "_pid",
                    "type": "uint256"
                },
                {
                    "internalType": "address",
                    "name": "_user",
                    "type": "address"
                }
            ],
            "name": "pendingCTF",
            "outputs": [
                {
                    "internalType": "uint256",
                    "name": "",
                    "type": "uint256"
                }
            ],
            "stateMutability": "view",
            "type": "function"
        },
        {
            "inputs": [
                {
                    "internalType": "uint256",
                    "name": "",
                    "type": "uint256"
                }
            ],
            "name": "poolInfo",
            "outputs": [
                {
                    "internalType": "contract IERC20",
                    "name": "token",
                    "type": "address"
                },
                {
                    "internalType": "uint256",
                    "name": "allocPoint",
                    "type": "uint256"
                },
                {
                    "internalType": "uint256",
                    "name": "lastRewardBlock",
                    "type": "uint256"
                },
                {
                    "internalType": "uint256",
                    "name": "accCTFPerShare",
                    "type": "uint256"
                },
                {
                    "internalType": "uint16",
                    "name": "depositFeeBP",
                    "type": "uint16"
                }
            ],
            "stateMutability": "view",
            "type": "function"
        },
        {
            "inputs": [],
            "name": "poolLength",
            "outputs": [
                {
                    "internalType": "uint256",
                    "name": "",
                    "type": "uint256"
                }
            ],
            "stateMutability": "view",
            "type": "function"
        },
        {
            "inputs": [],
            "name": "renounceOwnership",
            "outputs": [],
            "stateMutability": "nonpayable",
            "type": "function"
        },
        {
            "inputs": [
                {
                    "internalType": "uint256",
                    "name": "_pid",
                    "type": "uint256"
                },
                {
                    "internalType": "uint256",
                    "name": "_allocPoint",
                    "type": "uint256"
                },
                {
                    "internalType": "uint16",
                    "name": "_depositFeeBP",
                    "type": "uint16"
                },
                {
                    "internalType": "bool",
                    "name": "_withUpdate",
                    "type": "bool"
                }
            ],
            "name": "set",
            "outputs": [],
            "stateMutability": "nonpayable",
            "type": "function"
        },
        {
            "inputs": [
                {
                    "internalType": "address",
                    "name": "_feeAddress",
                    "type": "address"
                }
            ],
            "name": "setFeeAddress",
            "outputs": [],
            "stateMutability": "nonpayable",
            "type": "function"
        },
        {
            "inputs": [],
            "name": "startBlock",
            "outputs": [
                {
                    "internalType": "uint256",
                    "name": "",
                    "type": "uint256"
                }
            ],
            "stateMutability": "view",
            "type": "function"
        },
        {
            "inputs": [],
            "name": "teamRewardsReceiver",
            "outputs": [
                {
                    "internalType": "address",
                    "name": "",
                    "type": "address"
                }
            ],
            "stateMutability": "view",
            "type": "function"
        },
        {
            "inputs": [],
            "name": "teamShare",
            "outputs": [
                {
                    "internalType": "uint256",
                    "name": "",
                    "type": "uint256"
                }
            ],
            "stateMutability": "view",
            "type": "function"
        },
        {
            "inputs": [],
            "name": "totalAllocPoint",
            "outputs": [
                {
                    "internalType": "uint256",
                    "name": "",
                    "type": "uint256"
                }
            ],
            "stateMutability": "view",
            "type": "function"
        },
        {
            "inputs": [
                {
                    "internalType": "address",
                    "name": "newOwner",
                    "type": "address"
                }
            ],
            "name": "transferOwnership",
            "outputs": [],
            "stateMutability": "nonpayable",
            "type": "function"
        },
        {
            "inputs": [
                {
                    "internalType": "uint256",
                    "name": "_pid",
                    "type": "uint256"
                }
            ],
            "name": "updatePool",
            "outputs": [],
            "stateMutability": "nonpayable",
            "type": "function"
        },
        {
            "inputs": [
                {
                    "internalType": "uint256",
                    "name": "_newShare",
                    "type": "uint256"
                }
            ],
            "name": "updateTeamShare",
            "outputs": [],
            "stateMutability": "nonpayable",
            "type": "function"
        },
        {
            "inputs": [
                {
                    "internalType": "uint256",
                    "name": "",
                    "type": "uint256"
                },
                {
                    "internalType": "address",
                    "name": "",
                    "type": "address"
                }
            ],
            "name": "userInfo",
            "outputs": [
                {
                    "internalType": "uint256",
                    "name": "amount",
                    "type": "uint256"
                },
                {
                    "internalType": "uint256",
                    "name": "rewardDebt",
                    "type": "uint256"
                }
            ],
            "stateMutability": "view",
            "type": "function"
        },
        {
            "inputs": [
                {
                    "internalType": "uint256",
                    "name": "_pid",
                    "type": "uint256"
                },
                {
                    "internalType": "uint256",
                    "name": "_amount",
                    "type": "uint256"
                }
            ],
            "name": "withdraw",
            "outputs": [],
            "stateMutability": "nonpayable",
            "type": "function"
        }
    ],
    "bytecode": "608060405262278d006001556000600a5534801561001c57600080fd5b5060405161214b38038061214b833981810160405260a081101561003f57600080fd5b508051602082015160408301516060840151608090940151929391929091906000610068610117565b600080546001600160a01b0319166001600160a01b0383169081178255604051929350917f8be0079c531659141344cd1fd0a4f28419497f9722a3daafe3b4186f6b6457e0908290a35060058054336001600160a01b0319918216179091556003805482166001600160a01b0397881617905560048054821695871695909517909455600c91909155661771d8b3565800600755600b819055600680549093169190931617905560025561011b565b3390565b6120218061012a6000396000f3fe608060405234801561001057600080fd5b50600436106101c45760003560e01c8063715018a6116100f9578063b27d005b11610097578063e2bbb15811610071578063e2bbb15814610494578063ea6ef2fe146104b7578063f2fde38b146104bf578063fab3f57b146104e5576101c4565b8063b27d005b1461044f578063d49e77cd14610457578063d96384221461045f576101c4565b80638d88a90e116100d35780638d88a90e146103b05780638da5cb5b146103d657806393f1a40b146103de578063afb596cc14610423576101c4565b8063715018a61461034457806384e82a331461034c5780638705fcd41461038a576101c4565b8063441a3e701161016657806351eb05a61161014057806351eb05a6146102fa5780635312ea8e14610317578063630b5ba1146103345780636e8d36551461033c576101c4565b8063441a3e70146102b257806348b4e8fd146102d557806348cd4cb1146102f2576101c4565b806322a9339f116101a257806322a9339f14610241578063322d0d4a14610265578063379607f51461028d57806341275358146102aa576101c4565b8063081e3eda146101c95780631526fe27146101e357806317caf6f114610239575b600080fd5b6101d16104ed565b60408051918252519081900360200190f35b610200600480360360208110156101f957600080fd5b50356104f3565b604080516001600160a01b039096168652602086019490945284840192909252606084015261ffff166080830152519081900360a00190f35b6101d1610542565b610249610548565b604080516001600160a01b039092168252519081900360200190f35b61028b6004803603602081101561027b57600080fd5b50356001600160a01b0316610557565b005b61028b600480360360208110156102a357600080fd5b50356105ec565b610249610753565b61028b600480360360408110156102c857600080fd5b5080359060200135610762565b61028b600480360360208110156102eb57600080fd5b5035610970565b6101d1610a1d565b61028b6004803603602081101561031057600080fd5b5035610a23565b61028b6004803603602081101561032d57600080fd5b5035610c9e565b61028b610d3a565b610249610d59565b61028b610d68565b61028b6004803603608081101561036257600080fd5b508035906001600160a01b036020820135169061ffff60408201351690606001351515610e1c565b61028b600480360360208110156103a057600080fd5b50356001600160a01b0316611028565b61028b600480360360208110156103c657600080fd5b50356001600160a01b03166110fa565b61024961119d565b61040a600480360360408110156103f457600080fd5b50803590602001356001600160a01b03166111ac565b6040805192835260208301919091528051918290030190f35b6101d16004803603604081101561043957600080fd5b50803590602001356001600160a01b03166111d0565b6101d161131f565b610249611325565b61028b6004803603608081101561047557600080fd5b5080359060208101359061ffff60408201351690606001351515611334565b61028b600480360360408110156104aa57600080fd5b50803590602001356114e6565b6101d16116b8565b61028b600480360360208110156104d557600080fd5b50356001600160a01b03166116be565b6101d16117c8565b60085490565b6008818154811061050357600080fd5b6000918252602090912060059091020180546001820154600283015460038401546004909401546001600160a01b0390931694509092909161ffff1685565b600a5481565b6003546001600160a01b031681565b60085460005b818110156105e757826001600160a01b03166008828154811061057c57fe5b60009182526020909120600590910201546001600160a01b031614156105df576040805162461bcd60e51b81526020600482015260136024820152726164643a206578697374696e6720706f6f6c3f60681b604482015290519081900360640190fd5b60010161055d565b505050565b6000600882815481106105fb57fe5b60009182526020808320858452600982526040808520338652909252922080546005909202909201925061066c576040805162461bcd60e51b81526020600482015260136024820152724e6f205265776172647320746f20636c61696d60681b604482015290519081900360640190fd5b61067583610a23565b60006106b282600101546106ac670de0b6b3a76400006106a6876003015487600001546117ce90919063ffffffff16565b9061182e565b90611870565b90506106db670de0b6b3a76400006106a6856003015485600001546117ce90919063ffffffff16565b6001830155801561074d57600b5462278d000143116107435760006107116127106106a6600c54856117ce90919063ffffffff16565b60065490915061072a906001600160a01b0316826118b2565b61073d336107388484611870565b6118b2565b5061074d565b61074d33826118b2565b50505050565b6005546001600160a01b031681565b600854829081106107b5576040805162461bcd60e51b81526020600482015260186024820152776661726d3a20706f6f6c20646f206e6f742065786973747360401b604482015290519081900360640190fd5b6000600884815481106107c457fe5b600091825260208083208784526009825260408085203386529092529220805460059092029092019250841115610837576040805162461bcd60e51b81526020600482015260126024820152711dda5d1a191c985dce881b9bdd0819dbdbd960721b604482015290519081900360640190fd5b61084085610a23565b600061087182600101546106ac670de0b6b3a76400006106a6876003015487600001546117ce90919063ffffffff16565b905061089a670de0b6b3a76400006106a6856003015485600001546117ce90919063ffffffff16565b6001830155801561090757600b5462278d000143116108fd5760006108d06127106106a6600c54856117ce90919063ffffffff16565b6006549091506108e9906001600160a01b0316826118b2565b6108f7336107388484611870565b50610907565b61090733826118b2565b84156109315781546109199086611870565b82558254610931906001600160a01b03163387611a42565b604080518681529051879133917ff279e6a1f5e320cca91135676d9cb6e44ca8a08c0b88342bcdb1144f6511b5689181900360200190a3505050505050565b6004546001600160a01b031633146109c7576040805162461bcd60e51b81526020600482015260156024820152743330b9369d103bb937b733903232bb32b637b832b960591b604482015290519081900360640190fd5b6000811180156109d8575061271081105b610a18576040805162461bcd60e51b815260206004820152600c60248201526b57726f6e672056616c75657360a01b604482015290519081900360640190fd5b600c55565b600b5481565b60085481908110610a76576040805162461bcd60e51b81526020600482015260186024820152776661726d3a20706f6f6c20646f206e6f742065786973747360401b604482015290519081900360640190fd5b600060088381548110610a8557fe5b9060005260206000209060050201905080600201544311610aa65750610c9a565b8054604080516370a0823160e01b815230600482015290516000926001600160a01b0316916370a08231916024808301926020929190829003018186803b158015610af057600080fd5b505afa158015610b04573d6000803e3d6000fd5b505050506040513d6020811015610b1a57600080fd5b5051905080610b30575043600290910155610c9a565b610b38611a94565b6000610b59600a546106a685600101546007546117ce90919063ffffffff16565b90506000610b786127106106a6600c54856117ce90919063ffffffff16565b9050610b9e610b93846106a685670de0b6b3a76400006117ce565b600386015490611ac6565b600380860191909155436002860155546001600160a01b03166340c10f1930610bc78585611870565b6040518363ffffffff1660e01b815260040180836001600160a01b0316815260200182815260200192505050600060405180830381600087803b158015610c0d57600080fd5b505af1158015610c21573d6000803e3d6000fd5b5050600354600654604080516340c10f1960e01b81526001600160a01b0392831660048201526024810187905290519190921693506340c10f199250604480830192600092919082900301818387803b158015610c7d57600080fd5b505af1158015610c91573d6000803e3d6000fd5b50505050505050505b5050565b600060088281548110610cad57fe5b600091825260208083208584526009825260408085203380875293528420805485825560018201959095556005909302018054909450919291610cfd916001600160a01b03919091169083611a42565b604080518281529051859133917fbb757047c2b5f3974fe26b7c10f732e7bce710b0952a71082702781e62ae05959181900360200190a350505050565b60085460005b81811015610c9a57610d5181610a23565b600101610d40565b6006546001600160a01b031681565b610d70611b20565b6000546001600160a01b03908116911614610dd2576040805162461bcd60e51b815260206004820181905260248201527f4f776e61626c653a2063616c6c6572206973206e6f7420746865206f776e6572604482015290519081900360640190fd5b600080546040516001600160a01b03909116907f8be0079c531659141344cd1fd0a4f28419497f9722a3daafe3b4186f6b6457e0908390a3600080546001600160a01b0319169055565b6004546001600160a01b03163314610e73576040805162461bcd60e51b81526020600482015260156024820152743330b9369d103bb937b733903232bb32b637b832b960591b604482015290519081900360640190fd5b8015610e8157610e81610d3a565b610e8a83610557565b6101f48261ffff161115610ecf5760405162461bcd60e51b8152600401808060200182810382526025815260200180611f0b6025913960400191505060405180910390fd5b6000600b544311610ee257600b54610ee4565b435b600a54909150610ef49086611ac6565b600a556040805160a0810182526001600160a01b0395861681526020810196875290810191825260006060820181815261ffff9586166080840190815260088054600181018255935292517ff3f7a9fe364faab93b216da50a3214154f22a0a2b415b23a84c8169e8b636ee3600590930292830180546001600160a01b031916919098161790965595517ff3f7a9fe364faab93b216da50a3214154f22a0a2b415b23a84c8169e8b636ee487015590517ff3f7a9fe364faab93b216da50a3214154f22a0a2b415b23a84c8169e8b636ee586015592517ff3f7a9fe364faab93b216da50a3214154f22a0a2b415b23a84c8169e8b636ee68501555090517ff3f7a9fe364faab93b216da50a3214154f22a0a2b415b23a84c8169e8b636ee7909201805461ffff191692909116919091179055565b6005546001600160a01b03163314611087576040805162461bcd60e51b815260206004820152601860248201527f736574466565416464726573733a20464f5242494444454e0000000000000000604482015290519081900360640190fd5b6001600160a01b0381166110d8576040805162461bcd60e51b8152602060048201526013602482015272736574466565416464726573733a205a45524f60681b604482015290519081900360640190fd5b600580546001600160a01b0319166001600160a01b0392909216919091179055565b6004546001600160a01b03163314611151576040805162461bcd60e51b81526020600482015260156024820152743330b9369d103bb937b733903232bb32b637b832b960591b604482015290519081900360640190fd5b600480546001600160a01b0319166001600160a01b03831690811790915560405133907f7b4a3682445cf2b8276b6dde2faa9f9a653ea60d9ebadf169518e64f55666aae90600090a350565b6000546001600160a01b031690565b60096020908152600092835260408084209091529082529020805460019091015482565b600080600884815481106111e057fe5b600091825260208083208784526009825260408085206001600160a01b0389811687529084528186206005959095029092016003810154815483516370a0823160e01b815230600482015293519298509596909590949316926370a082319260248082019391829003018186803b15801561125a57600080fd5b505afa15801561126e573d6000803e3d6000fd5b505050506040513d602081101561128457600080fd5b505160028501549091504311801561129b57508015155b156112e75760006112c1600a546106a687600101546007546117ce90919063ffffffff16565b90506112e36112dc836106a684670de0b6b3a76400006117ce565b8490611ac6565b9250505b61131283600101546106ac670de0b6b3a76400006106a68688600001546117ce90919063ffffffff16565b9450505050505b92915050565b60075481565b6004546001600160a01b031681565b6004546001600160a01b0316331461138b576040805162461bcd60e51b81526020600482015260156024820152743330b9369d103bb937b733903232bb32b637b832b960591b604482015290519081900360640190fd5b6101f48261ffff1611156113d05760405162461bcd60e51b8152600401808060200182810382526025815260200180611f9d6025913960400191505060405180910390fd5b80156113de576113de610d3a565b82600885815481106113ec57fe5b9060005260206000209060050201600101541461146a576114408361143a6008878154811061141757fe5b906000526020600020906005020160010154600a5461187090919063ffffffff16565b90611ac6565b600a81905550826008858154811061145457fe5b9060005260206000209060050201600101819055505b61147e8361143a6008878154811061141757fe5b600a81905550826008858154811061149257fe5b90600052602060002090600502016001018190555081600885815481106114b557fe5b906000526020600020906005020160040160006101000a81548161ffff021916908361ffff16021790555050505050565b60085482908110611539576040805162461bcd60e51b81526020600482015260186024820152776661726d3a20706f6f6c20646f206e6f742065786973747360401b604482015290519081900360640190fd5b60006008848154811061154857fe5b6000918252602080832087845260098252604080852033865290925292206005909102909101915061157985610a23565b8054156115c55760006115b182600101546106ac670de0b6b3a76400006106a6876003015487600001546117ce90919063ffffffff16565b905080156115c3576115c333826118b2565b505b83156116575781546115e2906001600160a01b0316333087611b24565b600482015461ffff161561164857600482015460009061160f90612710906106a690889061ffff166117ce565b600554845491925061162e916001600160a01b03908116911683611a42565b81546116409082906106ac9088611ac6565b825550611657565b80546116549085611ac6565b81555b6003820154815461167591670de0b6b3a7640000916106a6916117ce565b6001820155604080518581529051869133917f90890809c654f11d6e72a28fa60149770a0d11ec6c92319d6ceb2bb0a4ea1a159181900360200190a35050505050565b600c5481565b6116c6611b20565b6000546001600160a01b03908116911614611728576040805162461bcd60e51b815260206004820181905260248201527f4f776e61626c653a2063616c6c6572206973206e6f7420746865206f776e6572604482015290519081900360640190fd5b6001600160a01b03811661176d5760405162461bcd60e51b8152600401808060200182810382526026815260200180611f306026913960400191505060405180910390fd5b600080546040516001600160a01b03808516939216917f8be0079c531659141344cd1fd0a4f28419497f9722a3daafe3b4186f6b6457e091a3600080546001600160a01b0319166001600160a01b0392909216919091179055565b60025481565b6000826117dd57506000611319565b828202828482816117ea57fe5b04146118275760405162461bcd60e51b8152600401808060200182810382526021815260200180611f7c6021913960400191505060405180910390fd5b9392505050565b600061182783836040518060400160405280601a81526020017f536166654d6174683a206469766973696f6e206279207a65726f000000000000815250611b7e565b600061182783836040518060400160405280601e81526020017f536166654d6174683a207375627472616374696f6e206f766572666c6f770000815250611c20565b600354604080516370a0823160e01b815230600482015290516000926001600160a01b0316916370a08231916024808301926020929190829003018186803b1580156118fd57600080fd5b505afa158015611911573d6000803e3d6000fd5b505050506040513d602081101561192757600080fd5b50519050808211156119bb576003546040805163a9059cbb60e01b81526001600160a01b038681166004830152602482018590529151919092169163a9059cbb9160448083019260209291908290030181600087803b15801561198957600080fd5b505af115801561199d573d6000803e3d6000fd5b505050506040513d60208110156119b357600080fd5b506105e79050565b6003546040805163a9059cbb60e01b81526001600160a01b038681166004830152602482018690529151919092169163a9059cbb9160448083019260209291908290030181600087803b158015611a1157600080fd5b505af1158015611a25573d6000803e3d6000fd5b505050506040513d6020811015611a3b57600080fd5b5050505050565b604080516001600160a01b038416602482015260448082018490528251808303909101815260649091019091526020810180516001600160e01b031663a9059cbb60e01b1790526105e7908490611c7a565b600154600254014310611ac457611abc60646106a660506007546117ce90919063ffffffff16565b600755436002555b565b600082820183811015611827576040805162461bcd60e51b815260206004820152601b60248201527f536166654d6174683a206164646974696f6e206f766572666c6f770000000000604482015290519081900360640190fd5b3390565b604080516001600160a01b0380861660248301528416604482015260648082018490528251808303909101815260849091019091526020810180516001600160e01b03166323b872dd60e01b17905261074d908590611c7a565b60008183611c0a5760405162461bcd60e51b81526004018080602001828103825283818151815260200191508051906020019080838360005b83811015611bcf578181015183820152602001611bb7565b50505050905090810190601f168015611bfc5780820380516001836020036101000a031916815260200191505b509250505060405180910390fd5b506000838581611c1657fe5b0495945050505050565b60008184841115611c725760405162461bcd60e51b8152602060048201818152835160248401528351909283926044909101919085019080838360008315611bcf578181015183820152602001611bb7565b505050900390565b6060611ccf826040518060400160405280602081526020017f5361666545524332303a206c6f772d6c6576656c2063616c6c206661696c6564815250856001600160a01b0316611d2b9092919063ffffffff16565b8051909150156105e757808060200190516020811015611cee57600080fd5b50516105e75760405162461bcd60e51b815260040180806020018281038252602a815260200180611fc2602a913960400191505060405180910390fd5b6060611d3a8484600085611d42565b949350505050565b606082471015611d835760405162461bcd60e51b8152600401808060200182810382526026815260200180611f566026913960400191505060405180910390fd5b611d8c85611e9e565b611ddd576040805162461bcd60e51b815260206004820152601d60248201527f416464726573733a2063616c6c20746f206e6f6e2d636f6e7472616374000000604482015290519081900360640190fd5b60006060866001600160a01b031685876040518082805190602001908083835b60208310611e1c5780518252601f199092019160209182019101611dfd565b6001836020036101000a03801982511681845116808217855250505050505090500191505060006040518083038185875af1925050503d8060008114611e7e576040519150601f19603f3d011682016040523d82523d6000602084013e611e83565b606091505b5091509150611e93828286611ea4565b979650505050505050565b3b151590565b60608315611eb3575081611827565b825115611ec35782518084602001fd5b60405162461bcd60e51b8152602060048201818152845160248401528451859391928392604401919085019080838360008315611bcf578181015183820152602001611bb756fe6164643a20696e76616c6964206465706f7369742066656520626173697320706f696e74734f776e61626c653a206e6577206f776e657220697320746865207a65726f2061646472657373416464726573733a20696e73756666696369656e742062616c616e636520666f722063616c6c536166654d6174683a206d756c7469706c69636174696f6e206f766572666c6f777365743a20696e76616c6964206465706f7369742066656520626173697320706f696e74735361666545524332303a204552433230206f7065726174696f6e20646964206e6f742073756363656564a2646970667358221220d9c14b40cc062f5dd231c0202aa189c2126baff451db59d7288bed567b4de3b964736f6c63430007050033",
    "sourcePath": "c:/Users/m/Desktop/CTF-Farming/CTFFarming.sol",
    "compiler": {
        "name": "solc",
        "version": "0.7.5+commit.eb77ed08"
    },
    "functionHashes": {
        "CTFPerBlock()": "b27d005b",
        "add(uint256,address,uint16,bool)": "84e82a33",
        "checkPoolDuplicate(address)": "322d0d4a",
        "claim(uint256)": "379607f5",
        "ctf()": "22a9339f",
        "deposit(uint256,uint256)": "e2bbb158",
        "dev(address)": "8d88a90e",
        "devaddr()": "d49e77cd",
        "emergencyWithdraw(uint256)": "5312ea8e",
        "feeAddress()": "41275358",
        "lastChange()": "fab3f57b",
        "massUpdatePools()": "630b5ba1",
        "owner()": "8da5cb5b",
        "pendingCTF(uint256,address)": "afb596cc",
        "poolInfo(uint256)": "1526fe27",
        "poolLength()": "081e3eda",
        "renounceOwnership()": "715018a6",
        "set(uint256,uint256,uint16,bool)": "d9638422",
        "setFeeAddress(address)": "8705fcd4",
        "startBlock()": "48cd4cb1",
        "teamRewardsReceiver()": "6e8d3655",
        "teamShare()": "ea6ef2fe",
        "totalAllocPoint()": "17caf6f1",
        "transferOwnership(address)": "f2fde38b",
        "updatePool(uint256)": "51eb05a6",
        "updateTeamShare(uint256)": "48b4e8fd",
        "userInfo(uint256,address)": "93f1a40b",
        "withdraw(uint256,uint256)": "441a3e70"
    },
    "gasEstimates": {
        "creation": {
            "codeDepositCost": "1645000",
            "executionCost": "infinite",
            "totalCost": "infinite"
        },
        "external": {
            "CTFPerBlock()": "1043",
            "add(uint256,address,uint16,bool)": "infinite",
            "checkPoolDuplicate(address)": "infinite",
            "claim(uint256)": "infinite",
            "ctf()": "1083",
            "deposit(uint256,uint256)": "infinite",
            "dev(address)": "23477",
            "devaddr()": "1104",
            "emergencyWithdraw(uint256)": "infinite",
            "feeAddress()": "1149",
            "lastChange()": "1108",
            "massUpdatePools()": "infinite",
            "owner()": "1104",
            "pendingCTF(uint256,address)": "infinite",
            "poolInfo(uint256)": "5403",
            "poolLength()": "1045",
            "renounceOwnership()": "24250",
            "set(uint256,uint256,uint16,bool)": "infinite",
            "setFeeAddress(address)": "22038",
            "startBlock()": "1088",
            "teamRewardsReceiver()": "1148",
            "teamShare()": "1064",
            "totalAllocPoint()": "1089",
            "transferOwnership(address)": "infinite",
            "updatePool(uint256)": "infinite",
            "updateTeamShare(uint256)": "21151",
            "userInfo(uint256,address)": "2139",
            "withdraw(uint256,uint256)": "infinite"
        },
        "internal": {
            "safeCTFTransfer(address,uint256)": "infinite",
            "updateRewardsPerBlock()": "infinite"
        }
    }
}